{"abi":[{"type":"constructor","inputs":[{"name":"_data","type":"bytes32[3]","internalType":"bytes32[3]"}],"stateMutability":"nonpayable"},{"type":"function","name":"ID","inputs":[],"outputs":[{"name":"","type":"uint256","internalType":"uint256"}],"stateMutability":"view"},{"type":"function","name":"locked","inputs":[],"outputs":[{"name":"","type":"bool","internalType":"bool"}],"stateMutability":"view"},{"type":"function","name":"unlock","inputs":[{"name":"_key","type":"bytes16","internalType":"bytes16"}],"outputs":[],"stateMutability":"nonpayable"}],"bytecode":{"object":"0x608060405260008054600160ff19918216811790925542918290556002805461ff00600a919093161761ff0019169190911763ffff000019166201000061ffff9093169290920291909117905534801561005857600080fd5b506040516102ad3803806102ad833981016040819052610077916100dd565b6100836003828161008a565b5050610174565b82600381019282156100b8579160200282015b828111156100b857825182559160200191906001019061009d565b506100c49291506100c8565b5090565b5b808211156100c457600081556001016100c9565b6000606082840312156100ee578081fd5b82601f8301126100fc578081fd5b604051606081016001600160401b038111828210171561011e5761011e61015e565b604052808360608101861015610132578384fd5b835b6003811015610153578151835260209283019290910190600101610134565b509195945050505050565b634e487b7160e01b600052604160045260246000fd5b61012a806101836000396000f3fe6080604052348015600f57600080fd5b5060043610603c5760003560e01c8063b3cea217146041578063cf30901214605b578063e1afb08c14606c575b600080fd5b6047607d565b6040516052919060eb565b60405180910390f35b60616083565b6040516052919060e0565b607b607736600460b3565b608c565b005b60015481565b60005460ff1681565b6005546001600160801b031982811691161460a657600080fd5b506000805460ff19169055565b60006020828403121560c3578081fd5b81356001600160801b03198116811460d9578182fd5b9392505050565b901515815260200190565b9081526020019056fea26469706673582212209cd1758c2b1c543180053bce06835adc2ede00c342c0ae4ed0cfe13f90ca4a6f64736f6c63430008000033","linkReferences":{}},"methodIdentifiers":{"ID()":"b3cea217","locked()":"cf309012","unlock(bytes16)":"e1afb08c"},"id":0}